{
  "contractName": "Lottery",
  "abi": [
    {
      "inputs": [],
      "stateMutability": "nonpayable",
      "type": "constructor"
    },
    {
      "inputs": [
        {
          "internalType": "uint256",
          "name": "",
          "type": "uint256"
        }
      ],
      "name": "players",
      "outputs": [
        {
          "internalType": "address payable",
          "name": "",
          "type": "address"
        }
      ],
      "stateMutability": "view",
      "type": "function",
      "constant": true
    },
    {
      "inputs": [],
      "name": "winner",
      "outputs": [
        {
          "internalType": "address payable",
          "name": "",
          "type": "address"
        }
      ],
      "stateMutability": "view",
      "type": "function",
      "constant": true
    },
    {
      "stateMutability": "payable",
      "type": "receive",
      "payable": true
    },
    {
      "inputs": [],
      "name": "getBalance",
      "outputs": [
        {
          "internalType": "uint256",
          "name": "",
          "type": "uint256"
        }
      ],
      "stateMutability": "view",
      "type": "function",
      "constant": true
    },
    {
      "inputs": [],
      "name": "pickWinner",
      "outputs": [],
      "stateMutability": "payable",
      "type": "function",
      "payable": true
    },
    {
      "inputs": [],
      "name": "allPlayers",
      "outputs": [
        {
          "internalType": "address payable[]",
          "name": "",
          "type": "address[]"
        }
      ],
      "stateMutability": "view",
      "type": "function",
      "constant": true
    }
  ],
  "bytecode": "0x608060405234801561001057600080fd5b5033600160006101000a81548173ffffffffffffffffffffffffffffffffffffffff021916908373ffffffffffffffffffffffffffffffffffffffff160217905550610afb806100616000396000f3fe60806040526004361061004e5760003560e01c806312065fe0146101065780635d495aea14610131578063b0ec80941461013b578063dfbf53ae14610166578063f71d96cb1461019157610101565b3661010157670de0b6b3a7640000341461009d576040517f08c379a0000000000000000000000000000000000000000000000000000000008152600401610094906106e3565b60405180910390fd5b6000339080600181540180825580915050600190039060005260206000200160009091909190916101000a81548173ffffffffffffffffffffffffffffffffffffffff021916908373ffffffffffffffffffffffffffffffffffffffff1602179055005b600080fd5b34801561011257600080fd5b5061011b6101ce565b604051610128919061071c565b60405180910390f35b610139610266565b005b34801561014757600080fd5b506101506104b2565b60405161015d9190610827565b60405180910390f35b34801561017257600080fd5b5061017b610540565b6040516101889190610858565b60405180910390f35b34801561019d57600080fd5b506101b860048036038101906101b391906108a4565b610566565b6040516101c59190610858565b60405180910390f35b60003373ffffffffffffffffffffffffffffffffffffffff16600160009054906101000a900473ffffffffffffffffffffffffffffffffffffffff1673ffffffffffffffffffffffffffffffffffffffff1614610260576040517f08c379a00000000000000000000000000000000000000000000000000000000081526004016102579061091d565b60405180910390fd5b47905090565b600160009054906101000a900473ffffffffffffffffffffffffffffffffffffffff1673ffffffffffffffffffffffffffffffffffffffff163373ffffffffffffffffffffffffffffffffffffffff16146102f6576040517f08c379a00000000000000000000000000000000000000000000000000000000081526004016102ed9061091d565b60405180910390fd5b6003600080549050101561033f576040517f08c379a000000000000000000000000000000000000000000000000000000000815260040161033690610989565b60405180910390fd5b60006103496105a5565b9050600080805490508261035d91906109d8565b90506000818154811061037357610372610a09565b5b9060005260206000200160009054906101000a900473ffffffffffffffffffffffffffffffffffffffff16600260006101000a81548173ffffffffffffffffffffffffffffffffffffffff021916908373ffffffffffffffffffffffffffffffffffffffff160217905550600260009054906101000a900473ffffffffffffffffffffffffffffffffffffffff1673ffffffffffffffffffffffffffffffffffffffff166108fc6104226101ce565b9081150290604051600060405180830381858888f1935050505015801561044d573d6000803e3d6000fd5b50600067ffffffffffffffff81111561046957610468610a38565b5b6040519080825280602002602001820160405280156104975781602001602082028036833780820191505090505b50600090805190602001906104ad9291906105df565b505050565b6060600080548060200260200160405190810160405280929190818152602001828054801561053657602002820191906000526020600020905b8160009054906101000a900473ffffffffffffffffffffffffffffffffffffffff1673ffffffffffffffffffffffffffffffffffffffff16815260200190600101908083116104ec575b5050505050905090565b600260009054906101000a900473ffffffffffffffffffffffffffffffffffffffff1681565b6000818154811061057657600080fd5b906000526020600020016000915054906101000a900473ffffffffffffffffffffffffffffffffffffffff1681565b600044426000805490506040516020016105c193929190610a88565b6040516020818303038152906040528051906020012060001c905090565b828054828255906000526020600020908101928215610658579160200282015b828111156106575782518260006101000a81548173ffffffffffffffffffffffffffffffffffffffff021916908373ffffffffffffffffffffffffffffffffffffffff160217905550916020019190600101906105ff565b5b5090506106659190610669565b5090565b5b8082111561068257600081600090555060010161066a565b5090565b600082825260208201905092915050565b7f506c65617365207061792031206574686572206f6e6c79000000000000000000600082015250565b60006106cd601783610686565b91506106d882610697565b602082019050919050565b600060208201905081810360008301526106fc816106c0565b9050919050565b6000819050919050565b61071681610703565b82525050565b6000602082019050610731600083018461070d565b92915050565b600081519050919050565b600082825260208201905092915050565b6000819050602082019050919050565b600073ffffffffffffffffffffffffffffffffffffffff82169050919050565b600061078e82610763565b9050919050565b61079e81610783565b82525050565b60006107b08383610795565b60208301905092915050565b6000602082019050919050565b60006107d482610737565b6107de8185610742565b93506107e983610753565b8060005b8381101561081a57815161080188826107a4565b975061080c836107bc565b9250506001810190506107ed565b5085935050505092915050565b6000602082019050818103600083015261084181846107c9565b905092915050565b61085281610783565b82525050565b600060208201905061086d6000830184610849565b92915050565b600080fd5b61088181610703565b811461088c57600080fd5b50565b60008135905061089e81610878565b92915050565b6000602082840312156108ba576108b9610873565b5b60006108c88482850161088f565b91505092915050565b7f596f7520617265206e6f7420746865206d616e61676572000000000000000000600082015250565b6000610907601783610686565b9150610912826108d1565b602082019050919050565b60006020820190508181036000830152610936816108fa565b9050919050565b7f506c617965727320617265206c657373207468616e2033000000000000000000600082015250565b6000610973601783610686565b915061097e8261093d565b602082019050919050565b600060208201905081810360008301526109a281610966565b9050919050565b7f4e487b7100000000000000000000000000000000000000000000000000000000600052601260045260246000fd5b60006109e382610703565b91506109ee83610703565b9250826109fe576109fd6109a9565b5b828206905092915050565b7f4e487b7100000000000000000000000000000000000000000000000000000000600052603260045260246000fd5b7f4e487b7100000000000000000000000000000000000000000000000000000000600052604160045260246000fd5b6000819050919050565b610a82610a7d82610703565b610a67565b82525050565b6000610a948286610a71565b602082019150610aa48285610a71565b602082019150610ab48284610a71565b60208201915081905094935050505056fea2646970667358221220d103d79c07c4ca3583c5a759b1217c6d11162562c6831bdbaf648750afefbe6c64736f6c63430008130033",
  "immutableReferences": {},
  "source": "//SPDX-License-Identifier: GPL-3.0\n\npragma solidity >=0.5.0 <0.9.0;\n\ncontract Lottery{\n    address payable[] public players; //players array\n    address manager;\n    address payable public winner;\n\n    constructor(){\n        manager = msg.sender;\n    }\n\n    receive() external payable{\n        require(msg.value==1 ether, \"Please pay 1 ether only\");\n        players.push(payable(msg.sender));\n    }\n\n    function getBalance() public view returns(uint){\n        require(manager==msg.sender, \"You are not the manager\");\n        return address(this).balance;\n    }\n\n    function random() internal view returns(uint){\n        return uint(keccak256(abi.encodePacked(block.difficulty, block.timestamp, players.length)));\n    }\n\n    function pickWinner() public payable{\n        require(msg.sender==manager, \"You are not the manager\");\n        require(players.length>=3, \"Players are less than 3\");\n\n        uint r = random();\n        uint index = r%players.length;\n        winner = players[index];\n        winner.transfer(getBalance()); //transferring all the balance to the winner\n        players = new address payable[](0); //empty the array players for next lottery \n    }\n\n    function allPlayers() public view returns(address payable[] memory){\n        return players; //returns all people who are participating in the lottery\n    }\n}",
  "sourcePath": "/Users/sumitsaurav/Documents/lotterydapp/contracts/lottery.sol",
  "compiler": {
    "name": "solc",
    "version": "0.8.19+commit.7dd6d404.Emscripten.clang"
  },
  "schemaVersion": "3.4.13",
  "updatedAt": "2023-04-23T07:41:26.835Z",
  "networkType": "ethereum",
  "devdoc": {
    "kind": "dev",
    "methods": {},
    "version": 1
  },
  "userdoc": {
    "kind": "user",
    "methods": {},
    "version": 1
  }
}